{
  "contractName": "PKI",
  "abi": [
    {
      "anonymous": false,
      "inputs": [
        {
          "indexed": true,
          "internalType": "address",
          "name": "owner",
          "type": "address"
        },
        {
          "indexed": true,
          "internalType": "bytes32",
          "name": "certificateHash",
          "type": "bytes32"
        }
      ],
      "name": "CertificateRegistered",
      "type": "event"
    },
    {
      "anonymous": false,
      "inputs": [
        {
          "indexed": true,
          "internalType": "address",
          "name": "owner",
          "type": "address"
        },
        {
          "indexed": true,
          "internalType": "bytes32",
          "name": "certificateHash",
          "type": "bytes32"
        }
      ],
      "name": "CertificateRevoked",
      "type": "event"
    },
    {
      "inputs": [
        {
          "internalType": "bytes32",
          "name": "",
          "type": "bytes32"
        }
      ],
      "name": "certificates",
      "outputs": [
        {
          "internalType": "address",
          "name": "owner",
          "type": "address"
        },
        {
          "internalType": "bytes32",
          "name": "certificateHash",
          "type": "bytes32"
        },
        {
          "internalType": "bool",
          "name": "isValid",
          "type": "bool"
        }
      ],
      "stateMutability": "view",
      "type": "function",
      "constant": true
    },
    {
      "inputs": [
        {
          "internalType": "bytes32",
          "name": "_certificateHash",
          "type": "bytes32"
        }
      ],
      "name": "registerCertificate",
      "outputs": [],
      "stateMutability": "nonpayable",
      "type": "function"
    },
    {
      "inputs": [
        {
          "internalType": "bytes32",
          "name": "_certificateHash",
          "type": "bytes32"
        }
      ],
      "name": "revokeCertificate",
      "outputs": [],
      "stateMutability": "nonpayable",
      "type": "function"
    },
    {
      "inputs": [
        {
          "internalType": "bytes32",
          "name": "_certificateHash",
          "type": "bytes32"
        }
      ],
      "name": "verifyCertificate",
      "outputs": [
        {
          "internalType": "bool",
          "name": "",
          "type": "bool"
        }
      ],
      "stateMutability": "view",
      "type": "function",
      "constant": true
    }
  ],
  "bytecode": "0x608060405234801561000f575f80fd5b506107258061001d5f395ff3fe608060405234801561000f575f80fd5b506004361061004a575f3560e01c8063742f06881461004e578063850c176814610080578063c6cbc52a146100b0578063f101dce8146100cc575b5f80fd5b610068600480360381019061006391906104a0565b6100e8565b60405161007793929190610533565b60405180910390f35b61009a600480360381019061009591906104a0565b610138565b6040516100a79190610568565b60405180910390f35b6100ca60048036038101906100c591906104a0565b610160565b005b6100e660048036038101906100e191906104a0565b6102cf565b005b5f602052805f5260405f205f91509050805f015f9054906101000a900473ffffffffffffffffffffffffffffffffffffffff1690806001015490806002015f9054906101000a900460ff16905083565b5f805f8381526020019081526020015f206002015f9054906101000a900460ff169050919050565b3373ffffffffffffffffffffffffffffffffffffffff165f808381526020019081526020015f205f015f9054906101000a900473ffffffffffffffffffffffffffffffffffffffff1673ffffffffffffffffffffffffffffffffffffffff16146101ff576040517f08c379a00000000000000000000000000000000000000000000000000000000081526004016101f690610601565b60405180910390fd5b5f808281526020019081526020015f206002015f9054906101000a900460ff1661025e576040517f08c379a000000000000000000000000000000000000000000000000000000000815260040161025590610669565b60405180910390fd5b5f805f8381526020019081526020015f206002015f6101000a81548160ff021916908315150217905550803373ffffffffffffffffffffffffffffffffffffffff167f16e15024b75c1a44a4fdc8bf0618b080dccd8897d187afcc98a9bc771313369b60405160405180910390a350565b5f73ffffffffffffffffffffffffffffffffffffffff165f808381526020019081526020015f205f015f9054906101000a900473ffffffffffffffffffffffffffffffffffffffff1673ffffffffffffffffffffffffffffffffffffffff161461036e576040517f08c379a0000000000000000000000000000000000000000000000000000000008152600401610365906106d1565b60405180910390fd5b60405180606001604052803373ffffffffffffffffffffffffffffffffffffffff168152602001828152602001600115158152505f808381526020019081526020015f205f820151815f015f6101000a81548173ffffffffffffffffffffffffffffffffffffffff021916908373ffffffffffffffffffffffffffffffffffffffff160217905550602082015181600101556040820151816002015f6101000a81548160ff021916908315150217905550905050803373ffffffffffffffffffffffffffffffffffffffff167fb31a4bfd64a264737ab92a586033af794ce521bd393418cf0e31c8c587f10eb460405160405180910390a350565b5f80fd5b5f819050919050565b61047f8161046d565b8114610489575f80fd5b50565b5f8135905061049a81610476565b92915050565b5f602082840312156104b5576104b4610469565b5b5f6104c28482850161048c565b91505092915050565b5f73ffffffffffffffffffffffffffffffffffffffff82169050919050565b5f6104f4826104cb565b9050919050565b610504816104ea565b82525050565b6105138161046d565b82525050565b5f8115159050919050565b61052d81610519565b82525050565b5f6060820190506105465f8301866104fb565b610553602083018561050a565b6105606040830184610524565b949350505050565b5f60208201905061057b5f830184610524565b92915050565b5f82825260208201905092915050565b7f4f6e6c7920746865206f776e65722063616e207265766f6b65207468697320635f8201527f657274696669636174652e000000000000000000000000000000000000000000602082015250565b5f6105eb602b83610581565b91506105f682610591565b604082019050919050565b5f6020820190508181035f830152610618816105df565b9050919050565b7f436572746966696361746520697320616c7265616479207265766f6b65642e005f82015250565b5f610653601f83610581565b915061065e8261061f565b602082019050919050565b5f6020820190508181035f83015261068081610647565b9050919050565b7f436572746966696361746520616c726561647920726567697374657265642e005f82015250565b5f6106bb601f83610581565b91506106c682610687565b602082019050919050565b5f6020820190508181035f8301526106e8816106af565b905091905056fea264697066735822122092fc129dc6bab50f4593f9e8e2f1e0ad15d9e6f86466223d0fb59665272df1f164736f6c63430008150033",
  "immutableReferences": {},
  "source": "// SPDX-License-Identifier: MIT\npragma solidity ^0.8.0;\n\ncontract PKI {\n    struct Certificate {\n        address owner;\n        bytes32 certificateHash;\n        bool isValid;\n    }\n\n    mapping(bytes32 => Certificate) public certificates;\n\n    event CertificateRegistered(address indexed owner, bytes32 indexed certificateHash);\n    event CertificateRevoked(address indexed owner, bytes32 indexed certificateHash);\n\n    function registerCertificate(bytes32 _certificateHash) public {\n        require(certificates[_certificateHash].owner == address(0), \"Certificate already registered.\");\n\n        certificates[_certificateHash] = Certificate({\n            owner: msg.sender,\n            certificateHash: _certificateHash,\n            isValid: true\n        });\n\n        emit CertificateRegistered(msg.sender, _certificateHash);\n    }\n\n    function revokeCertificate(bytes32 _certificateHash) public {\n        require(certificates[_certificateHash].owner == msg.sender, \"Only the owner can revoke this certificate.\");\n        require(certificates[_certificateHash].isValid, \"Certificate is already revoked.\");\n\n        certificates[_certificateHash].isValid = false;\n\n        emit CertificateRevoked(msg.sender, _certificateHash);\n    }\n\n    function verifyCertificate(bytes32 _certificateHash) public view returns (bool) {\n        return certificates[_certificateHash].isValid;\n    }\n}\n",
  "sourcePath": "/home/nidrog/pki-descentralizada/new-dapp/contracts/PKI.sol",
  "compiler": {
    "name": "solc",
    "version": "0.8.21+commit.d9974bed.Emscripten.clang"
  },
  "schemaVersion": "3.4.16",
  "updatedAt": "2024-08-10T16:47:05.561Z",
  "networkType": "ethereum",
  "devdoc": {
    "kind": "dev",
    "methods": {},
    "version": 1
  },
  "userdoc": {
    "kind": "user",
    "methods": {},
    "version": 1
  }
}